:020000000F28C7
:10000800FE00030EF0000408F1000A08F200831253
:100018007F08F30091291028AC21CA00AD21CB003C
:10002800AE21F900C001C101C201C301C401C5016B
:10003800C601C701C801C901F701F80183012428D5
:10004800033083168500FC3083128500FC3083164C
:100058008700FC30831287000330831691008B17CA
:100068000B178B120B110B1183128101831681124E
:100078000112811101148114011583121F171F1415
:100088009F1783161F169F168B17C7308312BE0043
:100098004D28BE0B4C2850280000A32183129F1422
:1000A8009F1854281E08BE00BF013E08BF00BE01AD
:1000B8003E08C6003F08C70083161E088312BE000C
:1000C800BF013E08C6043F08C70444084A07BE00EB
:1000D80045080318450A4B07BF0047083F02031DA0
:1000E800772846083E0203187F287708031D7F28D3
:1000F8008B16F701F70A0030490206300319480247
:10010800031C96287808031D8B2801308C280030A2
:10011800BE003E08F800780C031C071003180714EB
:10012800C801C90183120719C5280130C00700306A
:1001380003180130C107003003180130C20700302E
:1001480003180130C3073230400641044204430417
:10015800031DB3280B11071087108B12F7014308F2
:10016800031DC3284208031DC3289C304102031DF8
:10017800C12841304002031DC128031C9628A32131
:1001880096280030C3000030C2000030C1000030A3
:10019800C00052288312BA01BB013B08803AFF0015
:1001A80080307F02031DDA280A303A0203180F292B
:1001B80083129F149F18DE281E08A000A1012008A2
:1001C800A100A0012008C6002108C70083161E0848
:1001D8008312A000A1012008C6042108C7043A0818
:1001E800A0002007243E8400460883138000840A68
:1001F800470880000130BA070318BB0A0030BB0764
:100208003B08803AFF0080307F02031D0D290A3029
:100218003A02031CDC2883122508B9002408B80018
:10022800BC01BD013D08803AFF0080307F02031DFC
:100238001F290A303C020318572983123C08A000E2
:100248002007243E840083130008A100840A0008C4
:10025800A2003908803AA3002208803A2302031D2D
:100268003729210838020318452983123C08A000C1
:100278002007243E840083130008B800840A00087D
:10028800B90001308312BC070318BD0A0030BD074E
:100298003D08803AFF0080307F02031D55290A304F
:1002A8003C02031C212983123908F5003808F400A0
:1002B80008008312A001A1012108803AFF008030C4
:1002C8007F02031D692903302002031808008312E6
:1002D80087140230F6000430F500BA30F400F40B4D
:1002E8007329F50B7329F60B732900008312871005
:1002F8000330F6008A30F5005530F400F40B8229FB
:10030800F50B8229F60B8229892901308312A0076F
:100318000318A10A0030A10760290130C807031893
:10032800C90A0030C9070B117308FF0072088A0058
:1003380071088400700E8300FE0E7E0E09005D2198
:10034800CE2075088312C5007408C4005D2108001A
:06035800033400340134FF
:02400E00E5FFCC
:00000001FF
