:020000000F28C7
:10000800FE00030EF0000408F1000A08F200831253
:100018007F08F30098281028AA20FD00F801F901AC
:10002800FA01FB01FC0183011928033083168500BE
:10003800FC3083128500FC3083168700FC30831265
:1000480087000330831691000430831299008B17C0
:100058000B178B160B118101831681120112811166
:100068000114811401158B172130F700F70B3A287A
:10007800831207108B12810100307B0204300319B0
:100088007A02031C5A287C08031D4C2801304D288D
:100098000030F7007708FC007C0C8312031C071063
:1000A80003180714FA01FB01F801F9018312191F5B
:1000B80075287D03031D75280130F8070318F90A10
:1000C8000030F907191F75287D03031D75280330B3
:1000D80078067904031D75280B158B16FD01F801A8
:1000E800F9018020003A031940280B1183120710E8
:1000F8008B12FD01FD0A4028F601F401F501831277
:100108000719962800307502323003197402031853
:1001180094280130F4070318F50A0030F5078328FE
:10012800F601F60A760808000130FA070318FB0AF8
:100138000030FB070B117308FF0072088A00710872
:0E0148008400700E8300FE0E7E0E090001344E
:02400E00E5FFCC
:00000001FF
