:020000000F28C7
:10000800FE00030EF0000408F1000A08F200831253
:100018007F08F300DF2910280222CC000322CD003C
:100028000422F9008313403084004C30FA21F70190
:10003800F80183011F28033083168500FC308312E2
:100048008500FC3083168700FC308312870003305C
:10005800831691008B170B178B120B110B11831240
:100068008101831681120112811101148114011575
:1000780083121F171F149F1783161F169F168B179F
:10008800C7308312BE004828BE0B47284B28000003
:10009800AB21F12183129F149F1850281E08BE001F
:1000A800BF013E08BF00BE013E08C6003F08C700AA
:1000B80083161E088312BE00BF013E08C6043F080F
:1000C800C70444084C07BE0045080318450A4D07F5
:1000D800BF0047083F02031D732846083E02031865
:1000E8008B287708031D8B288B16F701F70A7808E9
:1000F800031D8128831207148328831207100530F3
:10010800CA000030CB000330C8000030C9000030FE
:100118004B02063003194A02031CB028780C031C52
:100128000710031807140130C8070318C90A00305C
:10013800C90700304902043003194802031CAE28DD
:100148007808031DAA2883120714AC288312071005
:10015800C801C901CA01CB0183120719DF28013080
:10016800C007003003180130C10700300318013000
:10017800C207003003180130C3073230400641047B
:1001880042044304031DCD280B11071087108B125E
:10019800F7014308031DDD284208031DDD289C30B4
:1001A8004102031DDB2841304002031DDB28031CEC
:1001B800B028F121B0280030C3000030C200003060
:1001C800C1000030C0004E288312BA01BB013B08B1
:1001D800803AFF0080307F02031DF4280A303A027B
:1001E8000318292983129F149F18F8281E08A000B5
:1001F800A1012008A100A0012008C6002108C7000D
:1002080083161E088312A000A1012008C604210835
:10021800C7043A08A0002007243E84004608831338
:100228008000840A470880000130BA070318BB0A17
:100238000030BB073B08803AFF0080307F02031D77
:1002480027290A303A02031CF62883122508B90028
:100258002408B800BC01BD013D08803AFF00803089
:100268007F02031D39290A303C02031871298312C1
:100278003C08A0002007243E840083130008A10046
:10028800840A0008A2003908803AA3002208803AAC
:100298002302031D51292108380203185F298312FC
:1002A8003C08A0002007243E840083130008B800FF
:1002B800840A0008B90001308312BC070318BD0A7C
:1002C8000030BD073D08803AFF0080307F02031DE3
:1002D8006F290A303C02031C3B2983123908F500B8
:1002E8003808F40008008312A001A1012108803A0F
:1002F800FF0080307F02031D83290330200203188A
:100308000800831287140230F6000430F500BA3072
:10031800F400F40B8D29F50B8D29F60B8D290000BF
:10032800831287100330F6008A30F5005530F40048
:10033800F40B9C29F50B9C29F60B9C29A329013069
:100348008312A0070318A10A0030A1077A29831293
:10035800A001A1012108803AFF0080307F02031D1F
:10036800B72903302002031808008312071402304B
:10037800F6000430F500BA30F400F40BC129F50B8F
:10038800C129F60BC1290000831207100330F600BB
:100398008A30F5005530F400F40BD029F50BD0293C
:1003A800F60BD029D72901308312A0070318A10A18
:1003B8000030A107AE290130CA070318CB0A003064
:1003C800CB070B117308FF0072088A0071088400BC
:1003D800700E8300FE0E7E0E09007721E820750856
:1003E8008312C5007408C4007721080064008001E6
:1003F800840A0406031900340406FB290334003474
:020408000134BD
:02400E00E5FFCC
:00000001FF
